{
  "_format": "hh-sol-artifact-1",
  "contractName": "NewsFeed",
  "sourceName": "contracts/NewsFeed.sol",
  "abi": [
    {
      "inputs": [],
      "stateMutability": "nonpayable",
      "type": "constructor"
    },
    {
      "anonymous": false,
      "inputs": [
        {
          "indexed": false,
          "internalType": "uint256",
          "name": "id",
          "type": "uint256"
        },
        {
          "indexed": false,
          "internalType": "string",
          "name": "title",
          "type": "string"
        },
        {
          "indexed": false,
          "internalType": "string",
          "name": "description",
          "type": "string"
        },
        {
          "indexed": false,
          "internalType": "string",
          "name": "location",
          "type": "string"
        },
        {
          "indexed": false,
          "internalType": "string",
          "name": "category",
          "type": "string"
        },
        {
          "indexed": false,
          "internalType": "string",
          "name": "coverImageHash",
          "type": "string"
        },
        {
          "indexed": false,
          "internalType": "string",
          "name": "date",
          "type": "string"
        },
        {
          "indexed": false,
          "internalType": "address",
          "name": "author",
          "type": "address"
        }
      ],
      "name": "FeedCreated",
      "type": "event"
    },
    {
      "inputs": [
        {
          "internalType": "string",
          "name": "_title",
          "type": "string"
        },
        {
          "internalType": "string",
          "name": "_description",
          "type": "string"
        },
        {
          "internalType": "string",
          "name": "_location",
          "type": "string"
        },
        {
          "internalType": "string",
          "name": "_category",
          "type": "string"
        },
        {
          "internalType": "string",
          "name": "_coverImageHash",
          "type": "string"
        },
        {
          "internalType": "string",
          "name": "_date",
          "type": "string"
        }
      ],
      "name": "createFeed",
      "outputs": [],
      "stateMutability": "nonpayable",
      "type": "function"
    },
    {
      "inputs": [],
      "name": "getAllFeeds",
      "outputs": [
        {
          "components": [
            {
              "internalType": "uint256",
              "name": "id",
              "type": "uint256"
            },
            {
              "internalType": "string",
              "name": "title",
              "type": "string"
            },
            {
              "internalType": "string",
              "name": "description",
              "type": "string"
            },
            {
              "internalType": "string",
              "name": "location",
              "type": "string"
            },
            {
              "internalType": "string",
              "name": "category",
              "type": "string"
            },
            {
              "internalType": "string",
              "name": "coverImageHash",
              "type": "string"
            },
            {
              "internalType": "string",
              "name": "date",
              "type": "string"
            },
            {
              "internalType": "address",
              "name": "author",
              "type": "address"
            }
          ],
          "internalType": "struct NewsFeed.Feed[]",
          "name": "",
          "type": "tuple[]"
        }
      ],
      "stateMutability": "view",
      "type": "function"
    },
    {
      "inputs": [
        {
          "internalType": "uint256",
          "name": "_id",
          "type": "uint256"
        }
      ],
      "name": "getFeed",
      "outputs": [
        {
          "components": [
            {
              "internalType": "uint256",
              "name": "id",
              "type": "uint256"
            },
            {
              "internalType": "string",
              "name": "title",
              "type": "string"
            },
            {
              "internalType": "string",
              "name": "description",
              "type": "string"
            },
            {
              "internalType": "string",
              "name": "location",
              "type": "string"
            },
            {
              "internalType": "string",
              "name": "category",
              "type": "string"
            },
            {
              "internalType": "string",
              "name": "coverImageHash",
              "type": "string"
            },
            {
              "internalType": "string",
              "name": "date",
              "type": "string"
            },
            {
              "internalType": "address",
              "name": "author",
              "type": "address"
            }
          ],
          "internalType": "struct NewsFeed.Feed",
          "name": "",
          "type": "tuple"
        }
      ],
      "stateMutability": "view",
      "type": "function"
    },
    {
      "inputs": [],
      "name": "getTotalFeeds",
      "outputs": [
        {
          "internalType": "uint256",
          "name": "",
          "type": "uint256"
        }
      ],
      "stateMutability": "view",
      "type": "function"
    }
  ],
  "bytecode": "0x60806040523480156200001157600080fd5b506200005d6040518060400160405280601181526020017f6e65777366656564206465706c6f7965640000000000000000000000000000008152506200006360201b62000b6b1760201c565b620001f7565b62000103816040516024016200007a919062000170565b6040516020818303038152906040527f41304fac000000000000000000000000000000000000000000000000000000007bffffffffffffffffffffffffffffffffffffffffffffffffffffffff19166020820180517bffffffffffffffffffffffffffffffffffffffffffffffffffffffff83818316178352505050506200010660201b60201c565b50565b60008151905060006a636f6e736f6c652e6c6f679050602083016000808483855afa5050505050565b60006200013c8262000194565b6200014881856200019f565b93506200015a818560208601620001b0565b6200016581620001e6565b840191505092915050565b600060208201905081810360008301526200018c81846200012f565b905092915050565b600081519050919050565b600082825260208201905092915050565b60005b83811015620001d0578082015181840152602081019050620001b3565b83811115620001e0576000848401525b50505050565b6000601f19601f8301169050919050565b61150880620002076000396000f3fe608060405234801561001057600080fd5b506004361061004c5760003560e01c8063128767981461005157806377641b551461006f5780639f59e5931461008d578063ecb76d90146100a9575b600080fd5b6100596100d9565b60405161006691906111dc565b60405180910390f35b610077610505565b6040516100849190611242565b60405180910390f35b6100a760048036038101906100a29190610dcc565b61050e565b005b6100c360048036038101906100be9190610ee5565b61073c565b6040516100d09190611220565b60405180910390f35b60606002805480602002602001604051908101604052809291908181526020016000905b828210156104fc5783829060005260206000209060080201604051806101000160405290816000820154815260200160018201805461013b906113a2565b80601f0160208091040260200160405190810160405280929190818152602001828054610167906113a2565b80156101b45780601f10610189576101008083540402835291602001916101b4565b820191906000526020600020905b81548152906001019060200180831161019757829003601f168201915b505050505081526020016002820180546101cd906113a2565b80601f01602080910402602001604051908101604052809291908181526020018280546101f9906113a2565b80156102465780601f1061021b57610100808354040283529160200191610246565b820191906000526020600020905b81548152906001019060200180831161022957829003601f168201915b5050505050815260200160038201805461025f906113a2565b80601f016020809104026020016040519081016040528092919081815260200182805461028b906113a2565b80156102d85780601f106102ad576101008083540402835291602001916102d8565b820191906000526020600020905b8154815290600101906020018083116102bb57829003601f168201915b505050505081526020016004820180546102f1906113a2565b80601f016020809104026020016040519081016040528092919081815260200182805461031d906113a2565b801561036a5780601f1061033f5761010080835404028352916020019161036a565b820191906000526020600020905b81548152906001019060200180831161034d57829003601f168201915b50505050508152602001600582018054610383906113a2565b80601f01602080910402602001604051908101604052809291908181526020018280546103af906113a2565b80156103fc5780601f106103d1576101008083540402835291602001916103fc565b820191906000526020600020905b8154815290600101906020018083116103df57829003601f168201915b50505050508152602001600682018054610415906113a2565b80601f0160208091040260200160405190810160405280929190818152602001828054610441906113a2565b801561048e5780601f106104635761010080835404028352916020019161048e565b820191906000526020600020905b81548152906001019060200180831161047157829003601f168201915b505050505081526020016007820160009054906101000a900473ffffffffffffffffffffffffffffffffffffffff1673ffffffffffffffffffffffffffffffffffffffff1673ffffffffffffffffffffffffffffffffffffffff1681525050815260200190600101906100fd565b50505050905090565b60008054905090565b600082511161051c57600080fd5b600086511161052a57600080fd5b600085511161053857600080fd5b600084511161054657600080fd5b600083511161055457600080fd5b600073ffffffffffffffffffffffffffffffffffffffff163373ffffffffffffffffffffffffffffffffffffffff16141561058e57600080fd5b6000808154809291906105a0906113d4565b91905055506105af6001610c04565b60026040518061010001604052806105c76001610c1a565b81526020018881526020018781526020018681526020018581526020018481526020018381526020013373ffffffffffffffffffffffffffffffffffffffff168152509080600181540180825580915050600190039060005260206000209060080201600090919091909150600082015181600001556020820151816001019080519060200190610659929190610c51565b506040820151816002019080519060200190610676929190610c51565b506060820151816003019080519060200190610693929190610c51565b5060808201518160040190805190602001906106b0929190610c51565b5060a08201518160050190805190602001906106cd929190610c51565b5060c08201518160060190805190602001906106ea929190610c51565b5060e08201518160070160006101000a81548173ffffffffffffffffffffffffffffffffffffffff021916908373ffffffffffffffffffffffffffffffffffffffff1602179055505050505050505050565b610744610cd7565b6002828154811061077e577f4e487b7100000000000000000000000000000000000000000000000000000000600052603260045260246000fd5b906000526020600020906008020160405180610100016040529081600082015481526020016001820180546107b2906113a2565b80601f01602080910402602001604051908101604052809291908181526020018280546107de906113a2565b801561082b5780601f106108005761010080835404028352916020019161082b565b820191906000526020600020905b81548152906001019060200180831161080e57829003601f168201915b50505050508152602001600282018054610844906113a2565b80601f0160208091040260200160405190810160405280929190818152602001828054610870906113a2565b80156108bd5780601f10610892576101008083540402835291602001916108bd565b820191906000526020600020905b8154815290600101906020018083116108a057829003601f168201915b505050505081526020016003820180546108d6906113a2565b80601f0160208091040260200160405190810160405280929190818152602001828054610902906113a2565b801561094f5780601f106109245761010080835404028352916020019161094f565b820191906000526020600020905b81548152906001019060200180831161093257829003601f168201915b50505050508152602001600482018054610968906113a2565b80601f0160208091040260200160405190810160405280929190818152602001828054610994906113a2565b80156109e15780601f106109b6576101008083540402835291602001916109e1565b820191906000526020600020905b8154815290600101906020018083116109c457829003601f168201915b505050505081526020016005820180546109fa906113a2565b80601f0160208091040260200160405190810160405280929190818152602001828054610a26906113a2565b8015610a735780601f10610a4857610100808354040283529160200191610a73565b820191906000526020600020905b815481529060010190602001808311610a5657829003601f168201915b50505050508152602001600682018054610a8c906113a2565b80601f0160208091040260200160405190810160405280929190818152602001828054610ab8906113a2565b8015610b055780601f10610ada57610100808354040283529160200191610b05565b820191906000526020600020905b815481529060010190602001808311610ae857829003601f168201915b505050505081526020016007820160009054906101000a900473ffffffffffffffffffffffffffffffffffffffff1673ffffffffffffffffffffffffffffffffffffffff1673ffffffffffffffffffffffffffffffffffffffff16815250509050919050565b610c0181604051602401610b7f91906111fe565b6040516020818303038152906040527f41304fac000000000000000000000000000000000000000000000000000000007bffffffffffffffffffffffffffffffffffffffffffffffffffffffff19166020820180517bffffffffffffffffffffffffffffffffffffffffffffffffffffffff8381831617835250505050610c28565b50565b6001816000016000828254019250508190555050565b600081600001549050919050565b60008151905060006a636f6e736f6c652e6c6f679050602083016000808483855afa5050505050565b828054610c5d906113a2565b90600052602060002090601f016020900481019282610c7f5760008555610cc6565b82601f10610c9857805160ff1916838001178555610cc6565b82800160010185558215610cc6579182015b82811115610cc5578251825591602001919060010190610caa565b5b509050610cd39190610d32565b5090565b60405180610100016040528060008152602001606081526020016060815260200160608152602001606081526020016060815260200160608152602001600073ffffffffffffffffffffffffffffffffffffffff1681525090565b5b80821115610d4b576000816000905550600101610d33565b5090565b6000610d62610d5d8461128e565b61125d565b905082815260208101848484011115610d7a57600080fd5b610d85848285611360565b509392505050565b600082601f830112610d9e57600080fd5b8135610dae848260208601610d4f565b91505092915050565b600081359050610dc6816114bb565b92915050565b60008060008060008060c08789031215610de557600080fd5b600087013567ffffffffffffffff811115610dff57600080fd5b610e0b89828a01610d8d565b965050602087013567ffffffffffffffff811115610e2857600080fd5b610e3489828a01610d8d565b955050604087013567ffffffffffffffff811115610e5157600080fd5b610e5d89828a01610d8d565b945050606087013567ffffffffffffffff811115610e7a57600080fd5b610e8689828a01610d8d565b935050608087013567ffffffffffffffff811115610ea357600080fd5b610eaf89828a01610d8d565b92505060a087013567ffffffffffffffff811115610ecc57600080fd5b610ed889828a01610d8d565b9150509295509295509295565b600060208284031215610ef757600080fd5b6000610f0584828501610db7565b91505092915050565b6000610f1a8383611018565b905092915050565b610f2b81611324565b82525050565b6000610f3c826112ce565b610f4681856112f1565b935083602082028501610f58856112be565b8060005b85811015610f945784840389528151610f758582610f0e565b9450610f80836112e4565b925060208a01995050600181019050610f5c565b50829750879550505050505092915050565b6000610fb1826112d9565b610fbb8185611302565b9350610fcb81856020860161136f565b610fd4816114aa565b840191505092915050565b6000610fea826112d9565b610ff48185611313565b935061100481856020860161136f565b61100d816114aa565b840191505092915050565b60006101008301600083015161103160008601826111be565b50602083015184820360208601526110498282610fa6565b915050604083015184820360408601526110638282610fa6565b9150506060830151848203606086015261107d8282610fa6565b915050608083015184820360808601526110978282610fa6565b91505060a083015184820360a08601526110b18282610fa6565b91505060c083015184820360c08601526110cb8282610fa6565b91505060e08301516110e060e0860182610f22565b508091505092915050565b60006101008301600083015161110460008601826111be565b506020830151848203602086015261111c8282610fa6565b915050604083015184820360408601526111368282610fa6565b915050606083015184820360608601526111508282610fa6565b9150506080830151848203608086015261116a8282610fa6565b91505060a083015184820360a08601526111848282610fa6565b91505060c083015184820360c086015261119e8282610fa6565b91505060e08301516111b360e0860182610f22565b508091505092915050565b6111c781611356565b82525050565b6111d681611356565b82525050565b600060208201905081810360008301526111f68184610f31565b905092915050565b600060208201905081810360008301526112188184610fdf565b905092915050565b6000602082019050818103600083015261123a81846110eb565b905092915050565b600060208201905061125760008301846111cd565b92915050565b6000604051905081810181811067ffffffffffffffff821117156112845761128361147b565b5b8060405250919050565b600067ffffffffffffffff8211156112a9576112a861147b565b5b601f19601f8301169050602081019050919050565b6000819050602082019050919050565b600081519050919050565b600081519050919050565b6000602082019050919050565b600082825260208201905092915050565b600082825260208201905092915050565b600082825260208201905092915050565b600061132f82611336565b9050919050565b600073ffffffffffffffffffffffffffffffffffffffff82169050919050565b6000819050919050565b82818337600083830152505050565b60005b8381101561138d578082015181840152602081019050611372565b8381111561139c576000848401525b50505050565b600060028204905060018216806113ba57607f821691505b602082108114156113ce576113cd61144c565b5b50919050565b60006113df82611356565b91507fffffffffffffffffffffffffffffffffffffffffffffffffffffffffffffffff8214156114125761141161141d565b5b600182019050919050565b7f4e487b7100000000000000000000000000000000000000000000000000000000600052601160045260246000fd5b7f4e487b7100000000000000000000000000000000000000000000000000000000600052602260045260246000fd5b7f4e487b7100000000000000000000000000000000000000000000000000000000600052604160045260246000fd5b6000601f19601f8301169050919050565b6114c481611356565b81146114cf57600080fd5b5056fea26469706673582212202df28322362dcac29377ee75d46fca7e31d2f96a6660e11b26bf5b0cd18b3fe364736f6c63430008000033",
  "linkReferences": {},
  "deployedLinkReferences": {}
}